:020000040800F2
:10000000C8080020890100085B3C0008473600084A
:10001000593C000845070008934A0008000000000A
:10002000000000000000000000000000F94500088A
:10003000D114000800000000694300087D47000853
:10004000A3010008A3010008A3010008A301000800
:10005000A3010008A3010008A3010008A3010008F0
:10006000A3010008A3010008A3010008A3010008E0
:10007000A3010008A3010008A3010008A3010008D0
:10008000A3010008A3010008A3010008A3010008C0
:10009000A3010008A3010008A3010008A3010008B0
:1000A000A3010008A3010008A3010008A3010008A0
:1000B000A3010008A3010008A3010008A301000890
:1000C000A3010008A3010008A3010008A301000880
:1000D000A3010008A3010008A3010008A301000870
:1000E000A3010008A3010008A301000800F002F822
:1000F00000F03AF80AA090E8000C82448344AAF188
:100100000107DA4501D100F02FF8AFF2090EBAE885
:100110000F0013F0010F18BFFB1A43F0010318473B
:10012000784D0000984D0000103A24BF78C878C17F
:10013000FAD8520724BF30C830C144BF04680C60ED
:10014000704700000023002400250026103A28BF35
:1001500078C1FBD8520728BF30C148BF0B60704739
:100160001FB51FBD10B510BD00F007F91146FFF710
:10017000F7FF04F03DFD00F025F903B4FFF7F2FFAF
:1001800003BC00F02DF900000948804709480047EA
:10019000FEE7FEE7FEE7FEE7FEE7FEE7FEE7FEE737
:1001A000FEE7FEE704480549054A064B7047000094
:1001B000DF470008ED000008C8020020C808002042
:1001C000C8040020C8040020B2F120030AD5C2F1FF
:1001D000200320FA02F001FA03F321FA02F140EAC7
:1001E0000300704721FA03F04FF00001704710B58B
:1001F000203AC0F00B80B1E81850203AA0E818501F
:10020000B1E81850A0E81850BFF4F5AF5FEA027CDF
:1002100024BFB1E81850A0E8185044BF18C918C04E
:10022000BDE810405FEA827C24BF51F8043B40F8EF
:10023000043B08BF7047D20728BF31F8023B48BFD4
:1002400011F8012B28BF20F8023B48BF00F8012B12
:10025000704702F0FF0343EA032242EA024200F041
:100260006CB84FF0000200B513469446964620390C
:1002700022BFA0E80C50A0E80C50B1F12001BFF45F
:10028000F7AF090728BFA0E80C5048BF0CC05DF8C5
:1002900004EB890028BF40F8042B08BF704748BF13
:1002A00020F8022B11F0804F18BF00F8012B704787
:1002B0004FF0013C50F8042B51F8043B9A4221D1F5
:1002C000A2EB0C03934313EACC1317D150F8042B81
:1002D00051F8043B9A4215D1A2EB0C03934313EA65
:1002E000CC130BD150F8042B51F8043B9A4209D19E
:1002F000A2EB0C03934313EACC13DBD04FF00000C6
:10030000704700BFD01A01BAB1FA81F101F01801AB
:1003100022FA01F0CB40C1F12001DBB2C0B2C01A19
:100320002CFA01F3D11A914311EAC311E6D17047B7
:100330007047704770474FF000020429C0F01280E8
:1003400010F0030C3FF48FAFCCF1040CBCF1020FA2
:1003500018BF00F8012BA8BF20F8022BA1EB0C015D
:10036000FFF781BF5FEAC17C24BF00F8012B00F8D2
:10037000012B48BF00F8012B7047754600F02CF8A0
:10038000AE4605006946534620F00700854618B082
:1003900020B5FFF707FFBDE820404FF000064FF003
:1003A00000074FF000084FF0000B21F00701AC46AA
:1003B000ACE8C009ACE8C009ACE8C009ACE8C009C9
:1003C0008D46704710B50446AFF300802046BDE867
:1003D0001040FFF7D2BE00000048704768020020BE
:1003E00001491820ABBEFEE726000200704700005E
:1003F0002DE9FC5F0025AB46C64C009504F074FB6C
:10040000607501F067F8C3483D3003F02BFA08B976
:10041000E07A18B1607D44287ED055E1A0780128AB
:1004200024D1DFF8F0C200210CF13D0C9CF80060F3
:100430009CF801909CF802809CF803E09CF8040072
:100440000190B54801EB8102835CB3420FD10244B5
:1004500057784F450BD19378434508D1D7787745E6
:1004600005D11379019A934201D10025BCE06D1C9E
:10047000491CC9B2EDB20529E4D3002D73D0A54AB9
:100480006146383213789E426DD05778B9456AD0AC
:100490009378984567D0D778BE4564D01279019B90
:1004A000934260D00023002202EB820710F807C0BD
:1004B000B44514D107EB000A9AF801C0CC450ED11F
:1004C0009AF8027047450AD19AF803C0F44506D15C
:1004D0009AF804C0019FBC4501D100251EE0521CC2
:1004E000D2B2052AE0D3CDB103EB830710F807C0E1
:1004F000BCF1FF0F0CD13A185778FF2F08D197782D
:10050000FF2F05D1D778FF2F02D11779FF2F09D000
:100510005B1CDBB2052B00E0F4E0C4D3A08C052803
:100520000FD017E0002000250B5C1354A38C401C57
:100530005B1CC0B2A3840528F5D32079401C207130
:10054000ECE704F067F8002060630099491CC9B229
:100550000091A0840098012846D12078022803D079
:10056000012815D030E03FE06C4801F08DFE6C486A
:1005700001F08AFE6B4801F087FE6A480122654956
:10058000801C01F0A1FE654864226349801C12E0D2
:10059000654801F079FE624801F076FE614801F09D
:1005A00073FE604801225B49801C01F08DFE5E48AD
:1005B00064225949801C01F087FE574958481E2281
:1005C0006431801C01F080FE584801F05DFE514905
:1005D00056480122091D801C01F076FE0020009083
:1005E000A07D80F00100A075A07802286CD1494F51
:1005F0000026DFF824813D3706EB86013B7818F8AA
:1006000001209A4225D101EB08007A784178914285
:100610001FD18178BA7891421BD1C178FA78914282
:1006200017D101793A79914213D1FF220521FFF7C1
:1006300010FE394906EB460064310844FF220321CD
:10064000FFF707FE0BF1010000F0FF0B2079401EC1
:100650002071761CF6B2142ECED3BBF1010F33D12C
:100660002078022838D0022020702C4801F00CFE9F
:100670002A4864222849801C01F026FE294801F0FE
:1006800003FE284801222349801C01F01DFE264854
:1006900001F0FAFD224801F0F7FD1F4920481E2213
:1006A0006431801C01F010FE204801F0EDFD194975
:1006B0001E480122091D801C01F006FEE07D4FF05E
:1006C000000B80F00100E07512483D3003F0CAF8DD
:1006D00000B10120E07291E601202070124801F083
:1006E000D3FD114864220C49801C01F0EDFD0D483A
:1006F00001F0CAFD0B4801220649801C01F0E4FD0F
:100700000648C5E702F0A0FF0020A0706070BDE8B9
:10071000FC9F000000000020B000002000F800084E
:1007200000EC000800FC000800F4000800E80008E5
:1007300010B5142003F0AAFE0321BDE810401420D8
:1007400003F05BBFFEE72DE9F0410E460746154674
:100750000421052000F05CFA80210A2003F04DFFFF
:10076000002405E0395D092004F094F9641CE4B22A
:10077000B442F7D30321012004F08CF9FF240520B3
:1007800003F084FE641E14F0FF0401D04007F6D588
:10079000222003F07BFE2870212003F077FE687092
:1007A000BDE8F08110B5134CA079032805D1207E57
:1007B00080F0010020760020A071207E002813D058
:1007C00002F042FF00F018F800F0CAFFA0780128FC
:1007D0000BD0022809D0607D4428F3D102F034FF09
:1007E000207E80F00100207610BD02F02DFFFFF783
:1007F000FFFDE7E7000000202DE9F05F04F074F949
:10080000464C607504F13D0003F02CF818B100204F
:100810006070BDE8F09F414A4FF0020C3D32501F1E
:10082000137801788B4212D151784578A9420ED1C4
:1008300091788578A9420AD1D178C578A94206D1A4
:1008400011790079814202D184F801C033E06178E6
:10085000557892F8028092F803A0DFF8C49092F8DD
:1008600004B0002000EB800619F80670BB4219D1D5
:1008700006EB09025678B54214D19678B04511D1ED
:10088000D778BA450ED1127993450BD1244A01216C
:1008900000EB40006432104402882286807884F89D
:1008A000320005E0012903D0401CC0B20528D9D38D
:1008B00061700229ADD1607D41281AD042281AD03A
:1008C0004328A6D1154842300178FF29417815D038
:1008D000FF299ED08178FF299BD0C178FF2998D02D
:1008E0000179FF2995D04079FF2892D00420A0708B
:1008F0008FE70120FBE784F802C08AE7FF2988D14F
:100900008178FF2985D1C178FF2982D10179FF291A
:10091000EED14079FF28EBD10320E8E7000000206A
:10092000B000002010B504F0DFF8164C6075607957
:10093000032805D1607E80F00100607600206071A0
:10094000607E00281CD002F07FFE00BFFFF754FF3E
:1009500000F052FFA078032807D0042805D0607D5E
:100960004428F3D102F070FE06E002F06DFE00F0C4
:100970005BF9A0780028E9D1607E80F00100607604
:1009800010BD0000000000202DE9F84F9F4C607D55
:10099000312811D032280FD033280DD034280BD075
:1009A000352809D0362807D0372805D0382803D075
:1009B000392801D0302870D102F046FE94F820008A
:1009C000924E80F00100423684F8200006F11505B1
:1009D0005FF0000704F088F860753078FF287078C1
:1009E00015D0FF2827D0B078FF2824D0F078FF2832
:1009F00021D03079FF281ED07079FF281BD004F059
:100A000073F86075002871D00099A9B180E0FF28C3
:100A100011D1B078FF287DD1F078FF287AD13079D4
:100A2000FF2877D17079FF2874D194F8210080F0E5
:100A3000010084F821006DE0312811D032280FD058
:100A400033280DD034280BD0352809D0362807D0CC
:100A5000372805D0382803D0392801D0302802D1D2
:100A6000A17A491CA172A17A01290AD002290CD0CD
:100A700003290ED0042911D0052913D0062915D039
:100A800018E02978B1B9287014E0697891B96870D4
:100A900010E0A97871B9A8700CE0B5E0E97849B91F
:100AA000E87007E0297929B9287103E0697909B963
:100AB0006871A772412827D1A07A01280AD002289C
:100AC0000CD003280ED0042811D0052813D00628F6
:100AD00015D017E02978A9B12F7013E0697889B192
:100AE0006F700FE0A97869B1AF700BE011E0E978A1
:100AF00041B1EF7006E0297921B12F7102E06979E7
:100B000001B16F71401EA072A07A062800D9A772A9
:100B100001200090287878B3697869B3AA785AB32D
:100B2000EB78B3F1000943D02B79B3F1000A3FD041
:100B300095F80580B8F1000F3AD033789B4698427B
:100B40001BD17378994218D1B3789A4215D196F88F
:100B500003C0E14511D196F804C0E2450DD1737987
:100B600098450AD1C4F85770A4F85B7084F85D709A
:100B7000A07F80F00100A0771AE058450ED1707870
:100B800081420BD1B078824208D1F178894505D1F4
:100B900031798A4502D17079804509D0C4F85770FF
:100BA000A4F85B7084F85D70E07F80F00100E0776E
:100BB000E07F50B102F048FD00F03EFD02F044FD40
:100BC000E07F10B180F00100E077607D442804D020
:100BD00094F8210008B9A07F98B102F035FD00F02B
:100BE0002BFD94F8210018B180F0010084F8210059
:100BF00014F8200F80F001002070BDE8F84F02F0DB
:100C000023BD00F081FFE5E6BDE8F88F000000207D
:100C100070B50C46054603F039FC20EA040128466D
:100C2000BDE8704003F036BF2DE9F05FDFF848956E
:100C30004FF0FF0AA9F1070808F10E054FF0010B6C
:100C40000026A5F1500400BF03F04EFF6075A178A7
:100C5000032971D1002870D0617B00296ED1312821
:100C600011D032280FD033280DD034280BD035289E
:100C700009D0362807D0372805D0382803D039289E
:100C800001D0302802D1217C491C2174217C01290A
:100C90000AD002290FD0032914D0042919D005291C
:100CA0001ED0062923D029E098F80020FF2A25D15C
:100CB00088F8000022E098F80120FF2A1ED188F869
:100CC00001001BE098F80220FF2A17D188F80200E3
:100CD00014E098F80320FF2A10D188F803000DE0F3
:100CE00098F80420FF2A09D188F8040006E098F853
:100CF0000520FF2A02D188F805002674412844D136
:100D0000207C01280AD002280FD0032817D00428FD
:100D10001CD0052821D0062826D02BE098F80010FA
:100D2000FF2927D088F800A024E098F80110FF29B7
:100D300020D088F801A01DE0BFE02EE02BE098F85D
:100D40000210FF2916D088F802A013E098F80310CB
:100D5000FF290FD088F803A00CE098F80410FF29B1
:100D600008D088F804A005E098F80510FF2901D004
:100D700088F805A001210C2002F088FCFE48C01F65
:100D800002F0D4FC207C401E2074207C062800D970
:100D90002674607D08B1012000E00020607398F89F
:100DA00000004746FF2812D07878FF280FD0B87887
:100DB000FF280CD0F878FF2809D03879FF2806D012
:100DC0007879FF2803D0A07E80F00100A076A07E75
:100DD000002872D07879617D88426ED000F048FD9D
:100DE00003F082FE607580B3A17B79BB312811D0FE
:100DF00032280FD033280DD034280BD0352809D015
:100E0000362807D0372805D0382803D0392801D014
:100E1000302802D1217C491C2174217C01290AD06F
:100E200002290DD0032912D0042915D0052918D084
:100E300006291BD01FE02978FF291CD128701AE051
:100E40006978FF2917D1687015E05BE058E0A97850
:100E5000FF2910D1A8700EE0E978FF290BD1E870C6
:100E600009E02979FF2906D1287104E06979FF2971
:100E700001D16871267441283CD1207C01280AD018
:100E800002280ED0032812D0042817D005281BD022
:100E900006281FD023E02878FF2820D085F800A05E
:100EA0001DE06878FF281AD085F801A017E0A8781F
:100EB000FF2814D085F802A011E0A6E0E878FF280A
:100EC0000DD085F803A00AE02879FF2807D085F81F
:100ED00004A004E06879FF2801D085F805A001216D
:100EE0000D2002F0D3FBA448C01D02F01FFC207CA3
:100EF000401E2074207C062800D92674607D08B12D
:100F0000012000E00020A07303F0EEFD607528785A
:100F1000FF2812D06878FF280FD0A878FF280CD0BF
:100F2000E878FF2809D02879FF2806D06879FF28BB
:100F300003D0207B80F001002073207B00283FF449
:100F40004DAF03F0D1FD60752978387881422ED1FC
:100F50006A787B789A422AD1AA78BB789A4226D1BD
:100F6000EA78FB789A4222D12A793B799A421ED1BB
:100F70006A797B799A421AD1804801F085F97E49D5
:100F80007E480622C91F801C01F09EF97A48FF2284
:100F90000721C01DFFF75DF9207B80F00100207361
:100FA000A07E80F00100A07684F81BB02DE0814285
:100FB00013D16878797888420FD1A978B8788142BE
:100FC0000BD1E878F978884207D1287939798842B5
:100FD00003D1687979798842B1D06748FF22072127
:100FE000C01FFFF736F96448FF220721C01DFFF735
:100FF00030F9207B80F001002073A07E80F001009A
:10100000A076207F80F001002077A078042872D19C
:10101000607DA0B3617B99BB312811D032280FD0FD
:1010200033280DD034280BD0352809D0362807D0E6
:10103000372805D0382803D0392801D0302802D1EC
:10104000217C491C2174217C01290AD002290FD05E
:10105000032916D004291BD0052920D0062925D024
:101060002BE099F80020FF2A27D189F8000024E01E
:1010700099F80120FF2A20D189F801001DE068E0DD
:1010800065E099F80220FF2A17D189F8020014E0E0
:1010900099F80320FF2A10D189F803000DE099F890
:1010A0000420FF2A09D189F8040006E099F80520F8
:1010B000FF2A02D189F805002674412841D1207CFD
:1010C00001280AD002280FD0032815D004281AD0EE
:1010D00005281FD0062824D029E099F80010FF2900
:1010E00025D089F800A022E099F80100FF281ED041
:1010F00089F801A01BE085E099F80210FF2916D0BD
:1011000089F802A013E099F80300FF280FD089F8AE
:1011100003A00CE099F80410FF2908D089F804A076
:1011200005E099F80510FF2901D089F805A00121F3
:101130000C2002F0ABFA104802F0F8FA207C401EB6
:101140002074207C062800D92674607D08B1012017
:1011500000E00020607303F0C7FC607599F8002080
:101160004946FF2A17D04A78FF2A14D08A78FF2AE6
:1011700011D0CA78FF2A03E04900002000F00008DF
:1011800009D00A79FF2A06D04A79FF2A03D0A27E25
:1011900082F00102A276A27EA2B399F805108142E4
:1011A00030D002F051FA00BF03F09EFC607500F0F1
:1011B0005FFB607D38B3A17B81BB312811D0322821
:1011C0000FD033280DD034280BD0352809D036283D
:1011D00007D0372805D0382803D0392801D0302847
:1011E00002D1217C491C2174217C01290CD00229C7
:1011F0000FD0032913D0042916D0052919D00629A8
:101200001CD020E03AE163E02978FF291BD1287047
:1012100019E06978FF2916D1687014E056E0A978C2
:10122000FF2910D1A8700EE0E978FF290BD1E870F2
:1012300009E02979FF2906D1287104E06979FF299D
:1012400001D16871267441283AD1207C01280AD046
:1012500002280ED0032812D0042816D005281AD050
:1012600006281ED022E02878FF281FD085F800A08D
:101270001CE06878FF2819D085F801A016E0A8784E
:10128000FF2813D085F802A010E0E878FF280DD0E1
:1012900085F803A00AE02879FF2807D085F804A084
:1012A00004E06879FF2801D085F805A001210D2010
:1012B00002F0ECF9844802F039FA207C401E2074D8
:1012C000207C062800D92674607D08B1012000E04A
:1012D0000020A0732878FF2812D06878FF280FD04C
:1012E000A878FF280CD0E878FF2809D02879FF28B3
:1012F00006D06879FF2803D0207B80F0010020739E
:10130000207BE0B303F0F0FB60752A7899F80010B9
:1013100048468A4217D16B784778BB4213D1AB78E5
:101320008778BB420FD1EB78C778BB420BD12B79C2
:101330000779BB4207D16B794779BB4203D1E37B85
:1013400083F00103E3738A4214D1697842789142B1
:1013500010D1A978827891420CD1E978C278914273
:1013600008D129790279914204D1697999F8050067
:10137000814219D05448FF220721C01F00E013E02A
:10138000FEF767FFFF2207214F48FEF762FF207B31
:1013900080F001002073A07E80F00100A076207F05
:1013A00080F00100207769E0E07B00283FF4FCAE8C
:1013B0002A7898F80030294640469A4214D14A7853
:1013C00043789A4210D18B78827893420CD1CA78B4
:1013D000C3789A4208D10A7903799A4204D169798B
:1013E00098F8050081422ED0206DC4F84200B4F870
:1013F0005400A4F8460094F8560084F84800334896
:1014000000F042FF3049314806220E39801C00F0BE
:101410005BFF2D48FF220721C01FFEF71AFFFF22A6
:1014200007212948FEF715FF207B80F0010020737B
:10143000A07E80F00100A076E07B80F00100E073E8
:1014400084F81BB01AE02048FF220721C01FFEF7D6
:1014500000FFFF2207211C48FEF7FBFE207B80F0E7
:1014600001002073A07E80F00100A076607F80F0F4
:1014700001006077E07B80F00100E073E07E217F77
:101480000843617F084311D002F0DEF800F08EFAC5
:10149000E07E08B1E676A670207F00B1E676607F38
:1014A00010B180F00100607702F0CEF800F0E0F9B2
:1014B000607D442803D0A07800287FF4C5AB02F0FB
:1014C000C3F8A670BDE8F09F5000002000F00008AF
:1014D0007047000070B5304C4FF47A75A078012841
:1014E00015D0022812D1E07D002830D002F0ACF8EF
:1014F0000121002002F0CAF828A002F017F92846BE
:1015000000F0FEFEE07D80F00100E07570BDA07D82
:1015100080B102F099F80121002002F0B7F824A070
:1015200002F004F9284600F0EBFEA07D80F00100F7
:10153000A07570BD0021032002F0A8F821A002F0E0
:10154000F5F80121002002F0A1F822A00BE0002113
:10155000012002F09BF825A002F0E8F8012100200C
:1015600002F094F826A002F0E1F80221002002F037
:101570008DF828A002F0DAF802210C2002F086F89B
:10158000207902F01DF90321002002F07FF8BDE868
:10159000704024A002F0CAB80000002052454D4F10
:1015A0005645205355434345535346554C4C5900DB
:1015B0002020414444205355434345535346554C02
:1015C0004C590000414444204341524420534C4173
:1015D000564520005343414E462043415244205437
:1015E0004F20534C415645200000000052454D4FBE
:1015F0005645204341524420534C4156452000005B
:101600005343414E46204341524420544F20534CB3
:10161000415645004341524420534C4156453A20DF
:101620000000000020202050455353204420544FF8
:10163000204241434B00000010B5284CA07FD8B198
:101640000021042002F022F825A002F06FF8012109
:10165000022002F01BF826A002F068F802210846DA
:1016600002F014F826A002F061F80321022002F033
:101670000DF827A002F05AF8E07F88B1012103207D
:1016800002F004F826A002F051F80221032001F034
:10169000FDFF27A002F04AF84FF47A7000F030FE08
:1016A00094F82100002818D001F0CEFF0121052078
:1016B00001F0ECFF22A002F039F80221012001F034
:1016C000E5FF22A002F032F84FF4FA6000F018FEB5
:1016D00014F8200F80F00100207010BD00000020E1
:1016E000434F525245435420504153530000000091
:1016F00050455353204120544F204F50454E000039
:1017000050455353204220544F20434C4F534500E3
:1017100050455353204420544F204241434B000036
:1017200057524F4E472050415353574F5244000099
:10173000454E5445522054484520504153530000D3
:101740004E4F2050415353574F524400504C454147
:1017500053452043524541544520504153530000C6
:10176000114810B5007E00281DD00021022001F094
:101770008DFF0EA001F0DAFF0121002001F086FFAD
:101780000FA001F0D3FF0221002001F07FFF10A085
:1017900001F0CCFF0321002001F078FFBDE81040EC
:1017A00010A001F0C3BF10BD000000202020414464
:1017B00044204F522052454D4F56452020000000F6
:1017C00050455353204120544F20414444000000D1
:1017D00050455353204220544F2052454D4F5645BB
:1017E0000000000050455353204420544F204241F4
:1017F000434B2020200000000E4810B5407E0028FA
:1018000016D00021022001F041FF0BA001F08EFF55
:101810000121002001F03AFF0CA001F087FF032115
:10182000002001F033FFBDE810400CA001F07EBFA6
:1018300010BD000000000020435245415445204F98
:1018400052204348414E4745000000005045535345
:10185000204320544F2056494557200050455353AC
:10186000204420544F204241434B202020000000C0
:1018700010B5334C607E002860D0A078032819D0C2
:1018800004285BD10021022001F000FF2DA001F00F
:101890004DFF0221062001F0F9FE2FA001F046FFC6
:1018A0000321062001F0F2FE2FA001F03FFFA07EF1
:1018B000B8B932E00021022001F0E8FE2EA001F0CC
:1018C00035FF0221062001F0E1FE23A001F02EFFEA
:1018D0000321062001F0DAFE23A001F027FFA07EFD
:1018E00068B10121002001F0D1FE28A001F01EFF07
:1018F00001210D2001F0CAFE114850301AE00121EB
:10190000002001F0C3FE25A001F010FF01210C20F2
:1019100001F0BCFE0A4842300CE00121002001F039
:10192000B5FE1EA001F002FF01210C2001F0AEFE69
:1019300003484930BDE8104001F0F8BE10BD00007A
:101940000000002020204348414E4745205041538D
:101950005320202020200000504553532041204494
:10196000454C4554450000005045535320442054F5
:101970004F204241434B0000202043524541542018
:10198000504153532020202020000000434F4E465A
:1019900049524D20504153533A000000454E5445A2
:1019A0005220504153533A200000000070B5364C8D
:1019B0004FF4FA65A078032840D0042862D1207F34
:1019C000A0B10121002001F061FE30A001F0AEFEC7
:1019D0000221042001F05AFE32A001F0A7FE2846A1
:1019E00000F08EFC207F80F001002077607FB0B196
:1019F0000121084601F04AFE2EA001F097FE0221C7
:101A0000042001F043FE27A001F090FE284600F0DC
:101A100077FC01F019FE607F80F001006077E07EC6
:101A200000282FD00121002001F030FE26A001F077
:101A30007DFE2846BDE8704000F062BCE07E48B103
:101A40000121002001F022FE24A001F06FFE2846B3
:101A500000F056FC207F002814D00121002001F066
:101A600015FE23A001F062FE0221042001F00EFE0B
:101A70000CA001F05BFE284600F042FC207F80F0C5
:101A80000100207770BD0000000000204348414E57
:101A9000474520554E53554343455346554C4C59A5
:101AA00000000000454E5445522054484520504106
:101AB000535300004455504C494341544520504134
:101AC0005353574F524400004348414E474520531B
:101AD00055434345535346554C4C59004352454199
:101AE0005445205355434345535346554C4C590098
:101AF00043524541544520554E5355434345534663
:101B0000554C4C5900000000434810B590F8201087
:101B1000807F81431BD00021022001F0B7FD3FA050
:101B200001F004FE0121002001F0B0FD40A001F011
:101B3000FDFD0221042001F0A9FD40A001F0F6FD09
:101B40000321042001F0A2FD41A001F0EFFD324C81
:101B50004FF001015734207800284FF00C0003D0DB
:101B600001F094FD3EA002E001F090FD3DA001F0E7
:101B7000DDFD60784FF0010100284FF00D0003D02B
:101B800001F084FD36A002E001F080FD35A001F0F7
:101B9000CDFDA0784FF0010100284FF00E0003D0DA
:101BA00001F074FD2EA002E001F070FD2DA001F007
:101BB000BDFDE0784FF0010100284FF00F0003D089
:101BC00001F064FD26A002E001F060FD25A001F017
:101BD000ADFD20794FF0010100284FF0100003D037
:101BE00001F054FD1EA002E001F050FD1DA001F027
:101BF0009DFD60794FF0010100284FF0110003D0E6
:101C000001F044FD16A002E001F040FD15A0BDE882
:101C1000104001F08BBD0000000000204F50454EE9
:101C20002042592050415353574F52440000000066
:101C3000454E54455220504153533A00504553535A
:101C4000204120544F2044454C455445000000009D
:101C500050455353204420544F204241434B0000F1
:101C60002A00000020000000124810B5808C0528D2
:101C70001ED10021032001F009FD0FA001F056FD47
:101C80000121002001F002FD0FA001F04FFD032112
:101C9000002001F0FBFC10A001F048FD01210C2008
:101CA00001F0F4FC0348BDE81040343001F03EBDC3
:101CB00010BD000000000020414444204341524434
:101CC00020534C4156452000454E544552204E412C
:101CD0004D453A200000000020202020504553535D
:101CE000204120544F2044454C45544500000000FD
:101CF00070B5534D294668788A78511E012806D060
:101D000002280CD004280AD0032822D02AE0132964
:101D100028D20121002001F0B9FC4AA020E012B134
:101D2000142A08D009E0042807D10121002001F07D
:101D3000ADFC4AA014E0022805D00121002001F0EA
:101D4000A5FC4CA00CE00121002001F09FFC4FA05D
:101D500006E0132906D20121002001F097FC51A0D2
:101D600001F0E4FC364C263C6078022810D16878FB
:101D700001282DD0032831D0022801D004285DD1BC
:101D80000221002001F082FC4CA000BF01F0CEFC3B
:101D90006078012828D0002850D1207E617E08423A
:101DA0004CD10021022001F071FC4AA001F0BEFCE0
:101DB0000221002001F06AFC4AA001F0B7FC0321D7
:101DC000002001F063FC4DA0BDE8704001F0AEBC06
:101DD0000221002001F05AFC4DA0D7E7022100208B
:101DE00001F054FC50A0D1E7687801280BD00328FB
:101DF0000FD0022801D0042820D10221012001F0B7
:101E000045FC4FA00AE00221002001F03FFC51A058
:101E100004E00221002001F039FC54A001F086FC0E
:101E20000321012001F032FC56A001F07FFC0321C8
:101E3000072001F02BFC02480A30C5E770BD000006
:101E400026000020202020204F50454E494E47209C
:101E50004741544520202020000000002020202061
:101E6000202020434C4F5345442020202020202078
:101E700000000000202020202050415553452047DD
:101E80004154452020202020000000002020202058
:101E90002020204F50454E45442020202020202047
:101EA0000000000020202020434C4F53494E472083
:101EB0004741544520202020000000005041555348
:101EC000452042592043415254204D4153544552DC
:101ED0000000000057454C434F4D4520544F2048CB
:101EE0004F4D45002020202043415244204F522096
:101EF00050415353202020200000000020202020AB
:101F00002020202020202020202020202000000031
:101F10004F50454E2042592043415254204D415389
:101F20005445522000000000434C4F534520425975
:101F30002043415254204D4153544552000000006B
:101F40005041555345204259204341525420534C4F
:101F500041564500204F50454E20425920434152A2
:101F60005420534C415645200000000020434C4F64
:101F70005345204259204341525420534C41564529
:101F8000000000004E414D453A2000002DE9F05F71
:101F9000744D012605F12604687868B1697A51B953
:101FA000022801D0012806D16078401CC0B26070C0
:101FB000042800D966700120687260786A4F4FF07B
:101FC00002084FF014094FF0150A4FF0000B0128DA
:101FD00006D0022820D003280ED004281CD065E0AB
:101FE0000021624801F07EFA00224FF480713846E9
:101FF00000F03FFB00220AE000215C4801F072FA89
:1020000000224FF48071384600F033FB012280211A
:10201000384600F02EFB08E001221102384600F09D
:1020200028FB0021514801F0ABFA6078012802D06A
:1020300003281ED03AE0E879152800D9EE71A1787E
:10204000E879814201D2401EE871C0B2814201D9D3
:10205000401CE871142903D984F8029084F80180A7
:10206000287D18B3A078401CA070E879401CE87166
:102070001CE0E879152801D985F807A0A078E9794E
:10208000884201D2491EE971C9B2884201D9491C6E
:10209000E971297D21B1401EA070E879401EE871E8
:1020A000A07818B984F802B004206070A178E879AB
:1020B000814254D161784127012906D004290DD0ED
:1020C00002290CD004290AD026E0142824D185F84E
:1020D00007A084F8029084F801801DE0C8B3401C7A
:1020E000E871277002F019F81E480321263002F02B
:1020F00037F801F0CBFF1E4800F0C6F819491C481C
:1021000004222631801C00F0DFF81649184801220D
:10211000C91D801D00F0D8F8277001F0FEFF11489E
:102120000321263002F01CF801F0B0FF104800F047
:10213000ABF80C490E4804222631801C00F0C4F88C
:10214000BDE8F05F07490A480122C91D801D00F063
:10215000BBB8EE7184F802B004206070DCE7BDE823
:10216000F09F000000000020000C0140A8010020AA
:1021700000E4000806490020C8610648016941F0F2
:1021800004010161016941F04001016170470000F3
:10219000F001002000200240064A0021D1610649DA
:1021A0000A6942F002020A614861086940F0400091
:1021B00008617047F001002000200240044B00221B
:1021C000DA61044A136943F0010313610180704727
:1021D000F00100200020024014480022C168CB0614
:1021E000134904D5CA6942F00202CA611022C368C9
:1021F0005B0705D5CB6943F00103CB6142F00402D4
:10220000C369DB0707D0CB6943F00403CB61C16925
:1022100021F00101C161A2F58071013901D0C260D4
:102220007047C16921F00101C1617047002002407F
:10223000F001002070B5054600F020FA0646114C6A
:1022400009E0681C07D025B100F018FA801BA842ED
:1022500001D9032070BDE068C007F2D1E0688006B4
:1022600001D52020E060E068C00605D4E069C00721
:1022700002D1E068400703D5FFF7AEFF012070BD33
:10228000002070BD0020024010B586B0044600F06A
:10229000E7F80120CDE9024001900020009004A958
:1022A000684600F03FF800F091F806B010BD10B598
:1022B0000023521C04E030F8134021F8024B5B1C51
:1022C000B3EB520FF7DB10BD2DE9F04116460D467A
:1022D000074600F0C5F80024761C09E02A8807EBC1
:1022E00044010023012000F07BF8641CE4B2AD1C23
:1022F000B4EB560FF2D3BDE8F04100F067B8000030
:1023000070B5044600F0BAF90546601C02D00448D6
:102310000078044400F0B2F9401BA042FAD370BD2B
:10232000680000202DE9F047054626480F460126A3
:10233000017E01290FD00121814601762868DFF84E
:1023400088804CF25034022808D0A2462046FFF77D
:1023500071FFA8B131E00220BDE8F0872046FFF709
:1023600069FF08BB0120FFF705FF2046FFF762FF6A
:10237000D8F81010064621F00401C8F810101CE02F
:102380004FF0FF303860AC6811E02046FFF704FFE3
:102390005046FFF74FFFD8F81010060021F0020159
:1023A000C8F8101001D03C6007E004F58064D5E95E
:1023B000020100EB8120A042E7D8002189F8181023
:1023C0003046C9E7F00100200020024003480169BF
:1023D00041F08001016100207047000000200240B0
:1023E0002DE9F05F07461C4888460024017E15460B
:1023F0001E46012909D00121814601764CF2503A4E
:102400005046FFF717FF18B122E00220BDE8F09F09
:10241000012F02D0022F00D00427D346DFF83CA0C2
:10242000220128463146FDF7CFFE81B208EB440079
:10243000FFF7C4FE5846FFF7FDFEDAF8102022F041
:102440000102CAF8102018B9641CE4B2BC42E7D3F8
:10245000002289F81820D9E7F0010020002002406E
:10246000064900200A69120607D5054A4A60054A4E
:102470004A600969090600D5012070470020024022
:1024800023016745AB89EFCD2DE9F84FDFF8B8910F
:102490000024A9F1040B23460F2709F1040AABF12C
:1024A000040EC9E00125A5402A40AA427DD1674E0D
:1024B000D1F804C0ACEB0608B44532D014DCBCF152
:1024C000030F3AD009DCBCF1000F2AD0BCF1010F98
:1024D0001CD0BCF1020F31D11DE0BCF1110F17D09F
:1024E000BCF1120F2AD119E0B8F5881F19D006DC0B
:1024F000B8F5803F15D0B8F5801F1FD111E0B8F5B1
:10250000001F0ED0B8F5041F18D10AE0CB6815E003
:10251000CB681B1D12E0CB6808330FE0CB680C338F
:102520000CE08B682BB1012B4FF0080303D0456101
:1025300004E0042302E0056100E00023FF2A01D843
:10254000064601E000F104064FEA840501D9A5F131
:102550002005D6F8008007FA05FC28EA0C0803FAE3
:1025600005F548EA0508C6F800804D68ED0062D51B
:10257000374DAE6946F00106AE61AD6924F0030641
:1025800005F001050095334D06EB050CDCF808500D
:10259000A607360F07FA06F825EA0805DFF8B8801F
:1025A000404503D14FF0000817E044E0DFF8AC806D
:1025B000404502D14FF001080FE0DFF8A48040450C
:1025C00002D14FF0020808E0DFF89880404502D1C0
:1025D0004FF0030801E04FF0040808FA06F848EA53
:1025E0000508CCF808804D68D9F80060ED024D462A
:1025F00001D5164300E096432E604D68DAF800607E
:10260000AD02554601D5164300E096432E604D6855
:10261000DBF80060AD035D4601D5164300E096434C
:102620002E604D68DEF80060ED03754601D5164357
:1026300000E096432E60641C0D682A46E5407FF456
:1026400031AFBDE8F88F0000080401400000111010
:10265000001002400000014000080140000C014051
:1026600000100140001401408068084000D00120A3
:1026700070470AB1016170470904FBE701488068AF
:102680007047000068000020024881680278114409
:102690008160704768000020074810B5016841F06C
:1026A00010010160032000F067F80F2000F006F829
:1026B00000F024F8002010BD0020024070B50D4D40
:1026C00004464FF47A712878B1FBF0F00A490968A2
:1026D000B1FBF0F000F099FD48B9102C07D20022B0
:1026E0002146501E00F028F800206C6070BD0120CB
:1026F00070BD000068000020740000200C4808B580
:10270000816941F001018161816901F0010100915C
:10271000C16941F08051C161C06900F080500090F2
:102720000448416821F0E06141F00071416008BD5A
:102730000010024000000140F0B40E4B1B680C4634
:10274000C3F30223C3F10705042D00D90425191D85
:10275000072901D2002300E0DB1E012606FA05F15D
:10276000491E214099409E40761E16403143F0BCE0
:1027700002F0AAB90CED00E0064900F00702086873
:102780004FF6FF03184040EA0220034A1043086056
:10279000704700000CED00E00000FA052DE9F0475D
:1027A0000F46050061D0434E306800F00700B84284
:1027B00009D2306820F0070038433060306800F0FC
:1027C0000700B84251D128683B4C810712D5400719
:1027D00003D5606840F4E06060602878000703D5A6
:1027E000606840F4605060606068A96820F0F000A4
:1027F000084360602878C00728D06868012810D096
:102800002168022810D0890700292EDA616821F09A
:10281000030101436160FFF731FF804641F28839CF
:102820000DE021688903EFE78901EDE7FFF726FF57
:10283000A0EB0801494502D90320BDE8F087606894
:10284000696800F00C00B0EB810FEFD1306800F048
:102850000700B8420BD9306820F0070038433060D9
:10286000306800F00700B84201D00120E5E7287881
:10287000400705D56068E96820F4E06008436060BF
:102880002878000706D56068296920F4605040EA7E
:10289000C100606000F018F86168084AC1F30311D4
:1028A000515CC8400649086006480068FFF706FF0B
:1028B0000020C2E700200240001002407A4E0008CB
:1028C000740000206C0000200E4A51680E4801F090
:1028D0000C03042B11D0082B0FD10C48C1F38343F8
:1028E000C903C05C0AD55168084AC1F34041921E31
:1028F000515C054A5043B0FBF1F07047044948432E
:10290000704700000010024000127A006A4E000872
:1029100000093D002DE9F84F040070D02078C04D2B
:10292000C00749D06868C0F38100012807D06868F3
:10293000C0F38100022809D16868C00306D5286861
:10294000800339D560680028E7D035E06068B0F5CD
:10295000803F0BD010B1B0F5A02F11D0286820F423
:1029600080302860286820F4802002E0286840F445
:1029700080302860606890B1FFF780FE06460AE06C
:10298000286840F480202860F0E700BFFFF776FE5B
:10299000801B642873D828688003F7D50CE0FFF704
:1029A0006DFE064605E000BFFFF768FE801B642849
:1029B000F0D828688003F7D420789A4E80074FF02B
:1029C00001094FF0000839D5686810F00C0F07D0E6
:1029D0006868C0F38100022809D16868C00306D482
:1029E0002868800714D52069012808D110E02069E3
:1029F000B0B1C6F80090FFF741FE074605E00AE1D6
:102A0000FFF73CFEC01B0228C4D828688007F7D512
:102A10002868616920F0F80040EAC10028600DE0F4
:102A2000C6F80080FFF72AFE074604E0FFF726FEFF
:102A3000C01B022823D828688007F7D42078000715
:102A40002CD57948A169D9B1C0F80090FFF716FEDE
:102A5000074604E0FFF712FEC01B02280FD8686A81
:102A60008007F7D571484FF4FA510068B0FBF1F0D8
:102A7000009000BF0098411E0091FAD20EE080E065
:102A8000C0F80080FFF7FAFD074604E0FFF7F6FD07
:102A9000C01B022875D8686A8007F7D420784007E1
:102AA00060D5E8690027C00008D4E86940F080508C
:102AB000E861E869012700F0805000905C480168F7
:102AC000C90513D40168834641F480710160FFF7A2
:102AD000D5FD824606E000BFFFF7D0FDA0EB0A005F
:102AE00064284ED8DBF80000C005F5D5E068012861
:102AF0000AD008B1052813D0286A20F00100286206
:102B0000286A20F0040002E0286A40F001002862F0
:102B1000E06841F2883B98B1FFF7B0FD82460BE0D8
:102B2000286A40F004002862EEE700BFFFF7A6FD28
:102B3000A0EB0A0159455AD8286A8007F6D50CE05F
:102B4000FFF79CFD824605E0FFF798FDA0EB0A0128
:102B500059454CD8286A8007F6D41FB1E86920F09F
:102B60008050E861E06988B36968C1F38101022996
:102B700044D00228C6F8608004D0FFF77FFD0446E9
:102B800038E034E0FFF77AFD074604E0FFF776FD12
:102B9000C01B02282BD828688001F7D4206AB0F522
:102BA000803F05D16868A16820F400300843686060
:102BB000D4E908010843696821F474110843686086
:102BC000C6F86090FFF75AFD044606E025E000BF16
:102BD000FFF754FD001B022809D828688001F7D5AB
:102BE0001BE000BFFFF74AFD001B022802D90320AB
:102BF000BDE8F88F28688001F4D40EE00128F7D0F2
:102C00006868226A00F48031914204D1616A00F45C
:102C10007010884201D00120EAE70020E8E70000B8
:102C20000010024000004242800442427400002032
:102C30000070004070B5040009D0606A002540B102
:102C400025616561A56294F8510040B10CE0012056
:102C500070BD6068B0F5827FF4D0E561F2E784F87A
:102C60005050204600F040F8022084F851002068BF
:102C7000016821F040010160A088218900F4827080
:102C800001F404410843A18901F400610843217C57
:102C900001F002010843217D01F001010843218B6D
:102CA00001F400710843217F01F03801084394F8D2
:102CB000201001F080010843218D01F400510843E8
:102CC00021680860A069042101EA10402168486079
:102CD0002068C16921F40061C1616565012084F843
:102CE0005100002070BD000030B585B00024009474
:102CF00001940294039400681449884223D1144833
:102D0000816941F480518161816901F480510491AC
:102D1000816941F00401816180690E4D00F0040079
:102D20000490A020009002200190032003906946A7
:102D30002846FFF7A9FB4020CDE900046946284654
:102D40000294FFF7A1FB05B030BD00000030014048
:102D500000100240000801402DE9F84F044690F8A9
:102D60005100984616460F460025012801D002253D
:102D700098E060684FF0040BB0F5827F01D1A06845
:102D8000F8B194F85000012826D04FF0010984F8DA
:102D90005090FFF773FC8246002F7FD0002E7DD02D
:102DA00084F851B000206065A763A687E68720639A
:102DB000A086E08620646064A068B0F5004F0DD066
:102DC00016E084F851B013460A462046CDF800803C
:102DD00000F024F9BDE8F88F0220FBE720680168C5
:102DE00021F0400101602068016821F48041016008
:102DF00020680168490603D4016841F04001016080
:102E0000E068D8B13BE020688168C90709D0007B41
:102E1000A16B0870A06B401CA063E08F401EE08790
:102E20000CE0FFF72BFCA0EB0A01414503D3B8F1FE
:102E3000FF3F03D006E0B8F1000F03D0E08F002879
:102E4000E1D11FE003252BE020688168C90709D084
:102E5000C068A16B0880A06B801CA063E08F401E3F
:102E6000E0870CE0FFF70AFCA0EB0A01414503D321
:102E7000B8F1FF3F03D0E5E7B8F1000FE2D0E08FF3
:102E80000028E1D152464146204601F01BFB08B123
:102E900020206065606D00E000E008B1012501E0E0
:102EA00084F85190002084F85000284692E72DE9DC
:102EB000F84F044690F850000026984615468A467A
:102EC00001280CD0012784F85070FFF7D7FB81460A
:102ED00094F85100B346012804D002269AE002205B
:102EE000BDE8F88FBAF1000F6FD0002D6DD0032030
:102EF00084F85100C4F854B0C4F830A0A586E58623
:102F0000C4F838B0A4F83CB0A4F83EB0C4F844B05B
:102F1000C4F840B0A068B0F5004F09D1206801683E
:102F200021F0400101602068016841F480410160A6
:102F300020680168490603D4016841F0400101603E
:102F4000E068B0F5006F606803D058B3012D29D058
:102F500049E008B1012D1FD1206B21680088C860AD
:102F600006E020688168890709D5216B0988C1605E
:102F7000206B801C2063E08E401EE0860CE0FFF793
:102F80007DFBA0EB0901414503D3B8F1FF3F03D01E
:102F900006E0B8F1000F03D0E08E0028E1D125E073
:102FA000032635E0206B21680078087306E020686E
:102FB000816889070AD5216B09780173206B401C51
:102FC0002063E08E401EE0860DE01FE0FFF756FB19
:102FD000A0EB0901414503D3B8F1FF3F03D0DFE780
:102FE000B8F1000FDCD0E08E0028E0D14A4641461F
:102FF000204601F095FA08B120206065A06818B954
:103000002068C16880680090606D08B1012601E009
:1030100084F8517084F850B0304661E72DE9FF4FD5
:1030200081B0044690F8500000260E9F1D4693463E
:103030004FF0010901280FD04FF0010A84F850A089
:10304000FFF71CFB804694F85100616801280DD001
:10305000B1F5827F08D103E0022005B0BDE8F08F12
:10306000A16809B9042801D00226C9E00298002805
:1030700065D0BBF1000FFBD0002DF9D094F85100C2
:10308000042802D0052084F8510000206065C4F8AF
:1030900038B0E587A58702992163E586A586206477
:1030A000606420680168490603D4016841F040016A
:1030B0000160E068B0F5006F606803D0F0B3012DE7
:1030C00047D081E008B1012D3CD1206B21680088F8
:1030D000C860206B801C2063E08E401EE08631E0DB
:1030E0002068816889070FD5E18E69B1B9F1010FB8
:1030F0000AD1216B0988C160206B801C2063E08E9F
:10310000401EE0864FF0000920688168C9070CD096
:10311000E18F51B1C068A16B0880A06B801CA063D7
:10312000E08F401EE0874FF00109FFF7A7FAA0EB00
:103130000800B84206D3781C04D001E009E05BE047
:1031400003265BE0E08E0028CAD1E08F0028C7D1BB
:1031500040E0206B216800780873206B401C2063DE
:10316000E08E401EE0862FE02068816889070FD539
:10317000E18E69B1B9F1010F0AD1216B09780173B0
:10318000206B401C2063E08E401EE0864FF000095B
:1031900020688168C9070CD0E18F51B1C068A16B6C
:1031A0000870A06B401CA063E08F401EE0874FF0CA
:1031B0000109FFF763FAA0EB0800B84202D3781CBC
:1031C00002D0BAE7002FB8D0E08E0028CCD1E08F33
:1031D0000028C9D142463946204601F0A1F918B16C
:1031E0000126202060650BE0A06818B92068C1683E
:1031F00080680090606D08B1012601E084F851A05C
:10320000002084F85000304627E710B5401EB0F18A
:10321000807F01D3012010BD4FF0E02460610F21B9
:10322000601701F051FC0020A06107202061002000
:1032300010BD000070B590F83C20012A26D0012472
:1032400080F83C40022280F83D2003685A689D685F
:1032500022F070060A6832435A600D4B02689A42A7
:1032600008D0B2F1804F05D00A4B9A4202D00A4BE7
:103270009A4204D1496825F080031943916080F88F
:103280003D40002180F83C10084670BD022070BD12
:10329000002C0140000400400008004010B504006C
:1032A00003D094F83D0010B107E0012010BD0020CC
:1032B00084F83C00204600F01FF8022084F83D000E
:1032C000211D206801F08CFA012084F8460084F862
:1032D0003E0084F83F0084F8400084F8410084F800
:1032E000420084F8430084F8440084F8450084F8E0
:1032F0003D00002010BD000008B500680649884266
:1033000008D10648C16941F00401C161C06900F0FB
:103310000400009008BD00000008004000100240BA
:1033200090F83D10012901D001207047022180F85A
:103330003D1000680B49884208D0B0F1804F05D09D
:103340000949884202D00949884204D1816801F0C4
:103350000701062903D0016841F001010160002046
:1033600070470000002C01400004004000080040AD
:1033700000B585B000210091019102910391006890
:103380000B49884211D10B48816941F008018161E4
:103390008069694600F008000490402000900220F7
:1033A000019003900448FFF76FF805B000BD0000DE
:1033B0000008004000100240000C014070B50446B7
:1033C00090F83C0000260D4601280FD0012084F81B
:1033D0003C006AB1042A1DD0082A2FD00C2A3FD005
:1033E0000126002084F83C00304670BD022070BDEC
:1033F000206801F043FA2068816941F00801816189
:103400002068816921F004018161206881692A694D
:10341000114311E0206801F059FA2068816941F4F4
:10342000006181612068816921F480618161206887
:1034300081692A6941EA02218161D2E7206801F0AD
:1034400071FA2068C16941F00801C1612068C16951
:1034500021F00401C1612068C1692A69114311E0AA
:10346000206801F08BFA2068C16941F40061C161F4
:103470002068C16921F48061C1612068C1692A693D
:1034800041EA0221C161ACE710B5040003D094F811
:103490003D0010B107E0012010BD002084F83C0081
:1034A000204600F01EF8022084F83D00211D20680F
:1034B00001F096F9012084F8460084F83E0084F873
:1034C0003F0084F8400084F8410084F8420084F80A
:1034D000430084F8440084F8450084F83D0000204F
:1034E00010BD704710B50446022249B104290ED020
:1034F000082913D094F84100012816D0012010BDEE
:1035000094F83E000128F9D184F83E200FE094F8A9
:103510003F000128F2D184F83F2008E094F84000F1
:103520000128EBD184F8402001E084F841200122F9
:10353000206801F08BF90F492068884203D1426C62
:1035400042F4004242642068884208D0B0F1804FC3
:1035500005D00949884202D00849884204D18168CF
:1035600001F00701062903D0016841F00101016063
:10357000002010BD002C0140000400400008004065
:1035800030B504460D460068002201F05FF9174B84
:1035900041F2111120688A10984209D1036A0B4246
:1035A00006D1036A134203D1436C23F400434364FE
:1035B0002068036A0B4206D1016A114203D10168F7
:1035C00021F00101016001203DB1042D08D0082D3A
:1035D00009D084F84100002030BD84F83E00FAE7AD
:1035E00084F83F00F7E784F84000F4E7002C01403E
:1035F00070B5044690F83C00012812D0012584F8EB
:103600003C50022084F83D00204601F0D9F9010029
:103610004FF0000007D084F83D5084F83C000120B2
:1036200070BD022070BD2168CA6822F04002CA60E5
:103630002168CA6822F48042CA6084F83D5084F848
:103640003C00002070BDFEE710B50021012000F015
:103650009DF8BDE810400120FEF752BE70B5012272
:10366000094D540321462846FFF703F80120FEF7D1
:1036700047FE002221462846FEF7FBFFBDE87040CA
:103680000120FEF73DBE0000000C014031B10129D0
:1036900006D0022906D0032907D105E0002204E064
:1036A000402202E0142200E054221044C0B240F054
:1036B0008000002100F06AB810B5002000F042F848
:1036C0000120FEF71DFE164C00224FF480512046CB
:1036D000FEF7CFFF002261142046FEF7CAFF032049
:1036E00000F030F8FFF7BAFF0120FEF709FE0220D4
:1036F00000F028F8FFF7B2FF0120FEF701FE0021DD
:10370000282000F043F800210C2000F03FF8FFF7DC
:103710009BFF0021BDE81040062000F037B80000F4
:10372000000C0140012100F031B8000010B5044642
:1037300003E000BFFFF7F6FF641C20780028F9D1F2
:1037400010BD000070B50F4D044600F001024FF4AB
:1037500080412846FEF78DFFC4F340024FF400413C
:103760002846FEF786FFA915074DC4F380022846B8
:10377000FEF77FFFC4F3C00269152846BDE870401C
:10378000FEF777BF000C01400008014010B5044669
:103790000A484FF4805379B101221946FEF769FFB8
:1037A0002009FFF7CFFFFFF759FF2046FFF7CAFFB9
:1037B000BDE81040FFF752BF0022EEE7000C0140C9
:1037C000FEB5051E28D003DA01212D20FFF7DEFF0C
:1037D00000240A206E46002D04DD95FBF0F100FB6D
:1037E000115104E0694291FBF0F200FB121195FBCC
:1037F000F0F53155641CE4B2002DECD109E030192C
:10380000012110F8010C40F03000FFF7BFFF641EEB
:10381000E4B2002CF3D1FEBD01213020FFF7B6FF4A
:10382000FEBD7CB50446002529460D2001F032F985
:10383000932020702020607001A82346009002226F
:1038400019460C2000F075F8010009D1225C401CDB
:103850005540C0B20428F9D3205CA84200D0022110
:1038600008467CBD70B505460146262000F046F8A6
:10387000040003D12846FFF7D4FF044600F002F805
:10388000204670BD0EB550208DF8040000208DF844
:1038900005000DF10602022101A8FCF754FF02A861
:1038A00001AB0090042219460C2000F042F80EBD36
:1038B00010B5012210211048FEF7DBFE00F035F8AC
:1038C0008D212A2001F0E6F83E212B2001F0E2F8BC
:1038D0001E212D2001F0DEF800212C2001F0DAF865
:1038E0004021152001F0D6F83D21112001F0D2F839
:1038F000BDE81040FCF71CBF000801407CB50C4639
:10390000054607210D2001F0C5F8257001A82346C2
:103910000090012219460C2000F00BF818B9BDF8F0
:103920000410102900D002207CBD0F21012001F0DD
:10393000B1B82DE9FF5F00270226DDF838A0154653
:103940008B468146B8460C2805D0B9F10E0F05D13B
:103950001227102001E077273020804647F08001B1
:10396000022001F097F880210420FDF751F9802111
:103970000A2000F042FE0021012001F08BF8002413
:1039800006E01BF80410092001F084F8641CA4B2BE
:10399000AC42F6D34946012001F07CF8B9F10C0F96
:1039A00003D180210D2000F028FE4FF4FA65042099
:1039B00000F06CFD6D1E2D0404462D0C04D0E007B4
:1039C00002D114EA080FF2D080210D20FDF720F972
:1039D00035B1062000F05AFD10F01B0F04D002266E
:1039E00004B03046BDE8F09F00263C40E00700D020
:1039F0000126B9F10C0FF3D10A2000F047FD04466F
:103A00000C2000F043FD10F007004FEAC40104D081
:103A100008390844AAF8000001E0AAF8001024B10F
:103A2000102C04D91024002503E00124FBE7002515
:103A300006E0092000F02AFD039948556D1CADB23F
:103A4000A542F6D3CCE700002DE9F04385B000266F
:103A500045480096019602960396816941F020013F
:103A60008161816901F020010491816941F00401C3
:103A70008161816901F004010491816941F00801CB
:103A80008161816901F008010491816941F01001AF
:103A900081618069DFF8D49000F01000049000226A
:103AA0004FF444714846FEF7E4FDDFF8C48000227D
:103AB0004FF203014046FEF7DCFD01241020CDE962
:103AC0000004022569464846CDE90245FEF7DCFCC4
:103AD0004FF44070CDE9000469464846CDE90245FF
:103AE000FEF7D2FC0327CDE9007469464046CDE9D4
:103AF0000245FEF7C9FCF801CDE90004CDE9024713
:103B000069464046FEF7C0FC4FF47840CDE900041A
:103B100069464046CDE90245FEF7B6FC60030395D1
:103B20008DE85100134F69463846FEF7ADFC4FF45F
:103B3000C060CDE90006694602944046FEF7A4FC49
:103B40004FF44040CDE90006694602943846FEF73E
:103B50009BFC0F20CDE90004694603954846FEF71B
:103B600093FC05B0BDE8F08300100240000801405E
:103B7000000C0140001001400F4810B50D490160D4
:103B80004FF48271416000218160C1604FF4007286
:103B90000161C0E905121022C0E90721416281627A
:103BA0000A21C162FFF746F8002801D072B6FEE78D
:103BB00010BD0000003001405001002010B58EB053
:103BC000142107A8FCF74DFB00240C941C21684627
:103BD0000D94FCF746FB1F481D4901604721C0E9D1
:103BE000011441F27071C0E903148461FFF756FBC0
:103BF00008B172B6FEE71748FFF746FC08B172B687
:103C0000FEE7079407A913480894FFF7F1FC08B1F1
:103C100072B6FEE70C940CA90E480D94FFF70AFB50
:103C200008B172B6FEE76020009040F6B830CDE9EA
:103C300001040022694607480494FFF7BFFB08B15E
:103C400072B6FEE70348FFF793FB0EB010BD00000D
:103C500000080040A8010020FEE7FEE708B50020AC
:103C600000F0BAFA50208DF8000073208DF80100A2
:103C70006423022269460348FFF719F9012000F086
:103C8000ABFA08BD100200200020AFF3008070B531
:103C9000054600F0B3FA0446C0F380166EB115B1C4
:103CA000C4F3420028704021072000F027FBA00643
:103CB00003D52021072000F021FB304670BD000015
:103CC0000FB460487CB50DF1700C58229CE8700070
:103CD00006A9FCF78CFA5C48C460C5800681012007
:103CE00000F07AFA002000F06DFA0520FEF708FBDC
:103CF0000821002000F002FB3F21012000F0FEFA25
:103D00000321022000F0FAFA0321084600F0F6FA37
:103D10000321042000F0F2FA0221052000F0EEFA5F
:103D20000F21062000F0EAFA0E21072000F0E6FA43
:103D30000021082000F0E2FA0021092000F0DEFA5C
:103D4000E7248DF803408DF802408DF801408DF88E
:103D500004408DF80040052269460A2000F0E6FA8A
:103D6000C2208DF803008DF802008DF801008DF857
:103D700004008DF80000052269460B2000F0D6FAF9
:103D8000C3210C2000F0BAFAC4210D2000F0B6FACD
:103D9000C5210E2000F0B2FAC6210F2000F0AEFAC5
:103DA0008DF803408DF802408DF801408DF80440F5
:103DB0008DF8004005226946102000F0B7FA002176
:103DC000112000F09BFA0021122000F097FA002148
:103DD000132000F093FA0021142000F08FFA002144
:103DE000152000F08BFA0021162000F087FAFFF76B
:103DF00035FF00211C2000F081FA00211D2000F079
:103E00007DFA00210F2000F039F9032000F010F9AD
:103E1000022000F0DFF8022000F0C0F800F016F8F1
:103E2000202000F023F900F0AEF84C2000F0CAF892
:103E300000F0E0F900F0DAF900F088F87CBC5DF8F9
:103E400014FB0000100200207800002010B51D2097
:103E500000F0FAF920F004011D2000F04FFA0021D3
:103E60001C2000F04BFA02490020C87010BD000071
:103E70007800002010B51D2000F0E6F940F00401A4
:103E80001D2000F03BFA1D2000F0DEF948B9FFF7D5
:103E9000E5FE1D2000F0D8F940F004011D2000F0DF
:103EA0002DFA1C2000F0D0F940F03F011C2000F05A
:103EB00025FA02490120C87010BD000078000020DA
:103EC000602000F0C1B900007FB504001248134D16
:103ED00006D0062C1ED8022C07D2005D052206E073
:103EE000DDE90212C5E90412F7E7005D012202A92B
:103EF00000F01CFA0848A978801F005D00F0FEF968
:103F0000022000F0A1F90121A1400843C1B2022022
:103F100000F0F4F97FBD0000904E0008780000200A
:103F200013B5052269460A2000F000FA0522694609
:103F3000102000F0FBF904488178202900D32021CB
:103F4000112000F0DBF91CBD7800002010B5002026
:103F500000F07AF920F00201BDE81040002000F0E6
:103F6000CDB910B500F04EF9172000F06DF900F052
:103F7000010400F03BF9602000F066F90CB101206B
:103F800010BD002010BD7021072000F0B7B908B1A6
:103F90003F2100E00021012000F0B0B910B5044637
:103FA000002000F051F920F00C011CB1012C06D0CA
:103FB00041F00C01BDE81040002000F09FB941F035
:103FC0000801F7E77F2800D37F200146052000F095
:103FD00095B900002DE9F04107464FF00008062092
:103FE00000F032F9114D002620F028046E71022FE6
:103FF0000ED0012F10D06E712146062000F07EF900
:10400000062000F021F9A0420BD14FF0010809E091
:104010006E7144F02004EFE70120687144F0080459
:10402000EAE76E714046BDE8F081000078000020AC
:1040300010B50446062000F007F920F00601032C15
:104040000DD0022C05D0012C06D054B1042C06D082
:1040500007E041F0040104E041F0020101E041F019
:104060000601BDE81040062000F048B9202800D322
:1040700020200149887070477800002000F00F0070
:1040800060F31F11042000F039B9000010B50020C2
:1040900000F0DAF840F00301002000F02FF90B499E
:1040A000D1E90401084305D00849052210310A204E
:1040B00000F03CF900F09EF800F098F8012000F0C4
:1040C00081F8BDE810400120FEF71AB97800002001
:1040D00070B505460C46002000F074F8002000F092
:1040E000B3F820F0010040F00201002000F006F9D2
:1040F000012000F067F80120FEF702F9214628466A
:1041000000F0E0F8012000F05DF80120FEF7F8F87B
:10411000BDE87040002000F055B810B5002000F058
:1041200051F800F067F8BDE8104000F05FB82DE9E5
:10413000F04115460E46044600F060F807460020A0
:1041400020707021072000F0D9F8C7F340102070CC
:10415000C7F300103070C7F380102870BDE8F081FD
:104160003EB50C460546FFF70EFF21462846FFF7F1
:10417000AFFFFEF783FA0446012201A9082000F0F0
:1041800083F800F03BF810F0300F04D1FEF776FA18
:10419000001B0A28F0D30A4A02A96846FFF7C7FFA6
:1041A000074C9DF80050207810B1FFF789FE607031
:1041B0000020FFF76CFD00F01DF828463EBD000012
:1041C00078000020020003480189C06800D0012265
:1041D000FEF74FBA7800002002000348C188C0688B
:1041E00000D00122FEF745BA78000020FF21E2202E
:1041F00000F084B8FF21E12000F080B8072000F033
:1042000023B8000038B505460D4884788C4200D9A3
:104210000C460020FFF7E0FF61208DF800006423CA
:10422000012269460748FEF742FE642322462946DA
:104230000448FEF791FD0120FFF7CEFF38BD0000D6
:10424000780000201002002038B504460020FFF757
:10425000C3FF04F01F008DF80000642301226946AB
:104260000848FEF724FE6423012206480DF10101EF
:10427000FEF772FD9DF801400120FFF7ADFF2046DB
:1042800038BD000010020020F8B5044615460E4661
:104290000020FFF7A1FF04F01F008DF80000642349
:1042A000012269460648FEF702FE64232A4631468B
:1042B0000348FEF751FD0120FFF78EFFF8BD000017
:1042C0001002002038B505460C460020FFF784FF99
:1042D000A0208DF800006423012269460648FEF7FD
:1042E000E6FD6423224629460348FEF7E0FD01204F
:1042F000FFF772FF38BD00001002002038B50546F8
:104300000C460020FFF768FF45F020008DF8000004
:104310008DF801406423022269460348FEF7C7FD79
:104320000120FFF759FF38BD10020020F8B5044600
:1043300015460E460020FFF74FFF44F020008DF891
:1043400000006423012269460648FEF7B0FD64239D
:104350002A4631460348FEF7AAFD0120FFF73CFF3D
:10436000F8BD0000100200207047000001B582B0C7
:1043700064200090012301AA02A90348FEF74EFE23
:104380009DF804000EBD00005001002070B5374EAE
:10439000012235493046FDF78AFF334906222F3185
:1043A0003348FDF784FF1E2232493348FDF77FFF73
:1043B0002D4901220F393148FDF779FF2A4904229E
:1043C00013312F48FDF773FF27492D4801220C397F
:1043D000001DFDF76CFF294C23496234062236315B
:1043E0002046FDF764FF204906223D312046FDF7B7
:1043F0005EFF1D490020133101258A78A1F12604B2
:10440000FF2A0CD10A78FF2A09D14A78FF2A06D15F
:10441000E279FF2A03D1887008704870E57121792C
:10442000FF2900D12071E07C01280BD0022811D097
:10443000FF280ED13046BDE870400E496422643931
:10444000FDF735BF0B49642264390E48FDF72FFF95
:10445000257070BD0749642264390B48FDF727FFBA
:104460000220207070BD00001300002002FC000834
:1044700002F000081401002002EC000802E8000825
:1044800002E4000802F4000802F8000870B50C4DC0
:104490000446002210212846FEF7EBF87E2000EAB1
:1044A000440040F08000FFF761FF0020FFF75EFF4F
:1044B0000446012210212846FEF7DBF8204670BD95
:1044C00000080140F8B5044640684FF482739842F2
:1044D00017D1A0684FF48065B0F5004F01D0A84215
:1044E0000FD12068066826F0400606606068984292
:1044F00007D1A068A84204D100920B4600220121F6
:1045000003E000920B4600228021204600F018F8BC
:10451000002804D0606D40F0200060650320F8BDE5
:1045200038B50B46009204460022802100F008F8BE
:10453000002804D0606D40F020006065032038BD85
:104540002DE9F8431E46914688460446089DFEF72D
:1045500095F8401B351AFEF791F807462548006884
:10456000C0F3CB30684338E0701C37D0FEF786F8D4
:10457000C01BA84203D215B1009860B32CE020689C
:10458000416821F0E00141606068B0F5827F0BD1A5
:10459000A068B0F5004F02D0B0F5806F04D120685C
:1045A000016821F040010160A06AB0F5005F09D107
:1045B0002068016821F4005101602068016841F41D
:1045C00000510160012084F85100002084F850005F
:1045D0000320BDE8F8830025401E00902068816814
:1045E00038EA010004D000214945BDD10020F0E7A0
:1045F0000121F9E774000020704770B50C460546AC
:10460000FFF744FF40EA04012846BDE8704000F08F
:1046100041BA00002DE9F041FFF716F8554D564E0E
:104620004FF0FF08002700BF00F05EFA7075F770CA
:10463000B17C3446E07800EB4002AB5CFF2B06D146
:104640002A445378FF2B02D19278FF2A0FD00329F6
:1046500004D0401CC0B2E0700528EBD3607D442834
:1046600002D0A07C0328DFD1B774BDE8F08100F050
:104670003BFA6075FDF7F8FA617DE9B3607CE0BB59
:10468000412908D0E07800EB40004219A07C115489
:10469000401CA0743BE0A07C012804D002280BD071
:1046A000032813D01CE0E07800EB4000295CFF29D0
:1046B00016D005F8008013E0E07800EB40002844B5
:1046C0004178FF290CD080F8018009E0E07800EB08
:1046D000400028448178FF2902D080F80280A77426
:1046E000A07C254A401EC0B2A074E178343201EBB0
:1046F00041012944095C01E027E024E01154012133
:104700000C20FEF7C3FF1C483430FFF70FF8A07CE5
:10471000032800D9A774E07800EB4000295CFF294A
:1047200009D141194A78FF2A05D18978FF2902D198
:10473000A17C032905D128440188A186807884F8CA
:104740003600607D08B1012000E000206074E07850
:1047500000EB4000295CFF2989D028444178FF29DB
:1047600085D08078FF2882D0A07C03287FF47FAF9B
:1047700074E700001401002000000020FDF784BF52
:1047800030B58FB028216846FBF76BFD14210AA8CD
:10479000FBF767FD01210804CDE900100024029415
:1047A00002250491CDE907504FF4E01009906846C6
:1047B000FEF7B0F808B172B6FEE70F20CDE90A05A2
:1047C0004FF48060CDE90C4002210AA80E94FDF759
:1047D000E5FF002801D072B6FEE70FB030BD70478C
:1047E000F0B50268164B174C174D4FF080479842B2
:1047F00005D0B84203D0A04201D0A84203D122F094
:1048000070064A683243984205D0B84203D0A042AD
:1048100001D0A84203D122F44074CA6822434C69F3
:1048200022F08002224302608A68C2620A688262C1
:10483000984201D10969016301214161F0BD000085
:10484000002C0140000400400008004010B501F0B9
:104850001F030121046A99408C430462016A9A4053
:104860001143016210BD10B5846842EA032224F4AA
:104870007F440A432243826010BD000030B5036AC2
:10488000026A22F0010202624268846924F0730520
:104890000C682C4323F002058B682B430A4DA84279
:1048A0000BD123F00805CB6822F440722B434D69ED
:1048B00023F0040315438A692A43426084614968EE
:1048C0004163036230BD0000002C014030B5026A34
:1048D000036A23F010030362436884690D6824F4BB
:1048E000E64444EA05248D6822F0200242EA0512DB
:1048F0000B4DA8420ED1CD6822F0800242EA05128B
:104900004D6923F4406343EA85038D6922F0400238
:1049100043EA85034360846149688163026230BD74
:10492000002C014030B5036A026A22F480720262F0
:104930004268C46923F4007324F073050C682C43A7
:104940008D6843EA05230C4DA8420ED1CD6823F4AF
:10495000006343EA05234D6922F4405242EA0512FE
:104960008D6923F4806342EA05124260C46149689C
:10497000C163036230BD0000002C014030B5046A01
:10498000026A22F4805202624268C3690D6823F40D
:10499000E64343EA05238D6824F4005444EA0534D1
:1049A000064DA84204D14D6922F4804242EA8512A4
:1049B0004260C36149680164046230BD002C01405B
:1049C00070B5036800249A6822F070054A682A438B
:1049D00022F007050A682A439A604A6812F00F0F0E
:1049E00031D11211082A2ED2DFE802F02E2E2E2EFF
:1049F0000B2127040B69D1E902210068FFF733FF7F
:104A000022E00A68052A10D00268136A156A25F0A8
:104A10000105156202689569096925F0F00545EA06
:104A200001119161006803620EE0012070BD0A6906
:104A30008968006800F00AF806E00A698968006879
:104A400000F015F800E00124204670BD10B5036A9F
:104A5000046A24F001040462846924F0F00444EA46
:104A6000021423F00A020A438461026210BD10B5E9
:104A7000036A046A24F010040462846923F0A0032A
:104A800024F4704444EA023243EA01118261016273
:104A900010BDFEE770B50B4D0E46044600221021F6
:104AA0002846FDF7E6FD7E2000EA4400FFF75EFCA5
:104AB0003046FFF75BFC2846BDE87040012210211C
:104AC000FDF7D7BD000801400907090E002804DBE7
:104AD00000F1E02080F80014704700F00F0000F1B2
:104AE000E02080F8141D70472DE9FF473C4B3D4DF9
:104AF0003D4F0FCB8DE80F00DFF8F08000246E46AD
:104B00004FF4004934B1012C0BD0022C3BD0032CC4
:104B10001BD144E0002208212846FDF7AAFD01220E
:104B200005E0012208212846FDF7A3FD002204210B
:104B30002846FDF79EFD012202212846FDF799FD3A
:104B4000012201212846FDF794FD49463846FDF72C
:104B50008BFDA8B34FF480413846FDF785FD80B347
:104B60004FF400714046FDF77FFD58B34FF480616C
:104B70004046FDF779FD70B3641C042CC2DB0020B5
:104B800004B0BDE8F087012208212846FDF771FD39
:104B9000012204212846FDF76CFD0022CCE701220A
:104BA00008212846FDF765FD012204212846FDF76E
:104BB00060FD012202212846FDF75BFD0022C0E7CF
:104BC00001E002E004E0305DDAE730190079D7E770
:104BD0003019007AD4E7FFE73019007BD0E70000F6
:104BE000584E00080008014000100140000C014030
:104BF000ACB0FDF751FDFFF7C3FDFEF725FFFEF753
:104C0000DDFFFEF7B9FFFEF757FDFEF751FE8A48BC
:104C1000FEF786FB88493622583915A8FBF7E7FAD4
:104C2000854C583CE08EADF88A00A4F14000816FBD
:104C30002391B0F87C00ADF89000E08FADF89200C1
:104C4000112204F1400125A8FBF7D1FA94F8510094
:104C50008DF8A500606D2A90784912A84FF0010ADE
:104C60004FF0020980E80206482219A96846FBF7BE
:104C7000BEFA0DF1540C9CE80F00FFF721F8704CC0
:104C8000D4E91801FFF74CF9D4E918230120FFF704
:104C90001BF90320FFF7CCF90220FFF79BF9342022
:104CA000FFF790F9FFF7E6F80120FFF770F90F2101
:104CB0000A20FFF7E3F9FFF7E9F9FDF7DFFCE0620F
:104CC000FFF764FB04F1260541262E70FFF725FA55
:104CD00003212846FFF744FAFFF7D8F9594F4FF45C
:104CE0007A7800BFFBF788FDFBF74EFEFDF74EF923
:104CF000A17F19B3607D412802D0422806D00AE086
:104D0000AA78142A07D085F801A014E0AA7812B175
:104D1000032068700FE06A78012A02D0032A03D0CA
:104D200004E085F8019001E004226A70442802D171
:104D300081F00100A077FCF77FFC01E0FCF7D8FFD1
:104D4000FBF7F0FDFBF72EFD6078022801D001286B
:104D50001DD194F82200D0B92E70FFF7DEF9384843
:104D600003212630FFF7FCF9FFF790F93648FDF7ED
:104D70008BFA3349344804222631801CFDF7A4FA0B
:104D80002F4931480122C91D801DFDF79DFA607829
:104D900090B1002084F82200FFF7A6FE6075FDF7B1
:104DA0006DFCE16A401A404518D9207D80F0010071
:104DB0002075A07F10B10EE00120EBE7607D422856
:104DC00002D0412804D006E06079401C607102E006
:104DD000A079401CA071FDF751FCE062FEF754FF82
:104DE00000283FF47FAFFFF76BF801461548FFF747
:104DF000B8F82E700520FDF783FAFFF78EF93878A2
:104E0000412805D011A10F48FBF752FA28B109E05B
:104E10003888E084B87884F82800094803212630CF
:104E2000FFF79EF9207A20B9054803212630FFF7C5
:104E300097F9FFF72BF955E7A8010020000C014076
:104E4000000000209000002000E400085265636F1D
:104E50006E6E656374000000313233413435364282
:104E6000373839432A302344010202030405060778
:104E700008090A0B0C0D0E0F1010000000000000B6
:104E80000000010203040607080911121314151685
:104E90000A0B0C0D0E0F1000B84E00080000002089
:104EA0009000000028010008484F000890000020F2
:104EB0003808000044010008010000000000000163
:104EC00000000000000000000000000000000000E2
:104ED00000000000000000000000000000000000D2
:104EE00000000000000000000000000000000000C2
:104EF000E39B33256E00000000000000000000006E
:104F000000000000000000000000000000000000A1
:104F100000000000000000000044332211000000E7
:104F20000100000010000000000000000024F40058
:104F30000000000000000000000000000000000071
:084F4000000000000000000069
:04000005080000ED02
:00000001FF
